{
  "transactions": [
    {
      "hash": "0x2c45c9cc4dc677037322bc1c70f29964ac9bd3749ef7ea8cac0444dfb7779201",
      "transactionType": "CALL",
      "contractName": null,
      "contractAddress": "0x779877a7b0d9e8603169ddbd7836e478b4624789",
      "function": "transferAndCall(address,uint256,bytes)",
      "arguments": [
        "0x9DdfaCa8183c41ad55329BdeeD9F6A8d53168B1B",
        "50000000000000000",
        "0x095d5354ca8513b092679e1cd7abfcd39dd99248fd82836e94211d738c35e320"
      ],
      "transaction": {
        "from": "0x5cf9ac9b7b6c42998b887099e4fa68a07e066f44",
        "to": "0x779877a7b0d9e8603169ddbd7836e478b4624789",
        "gas": "0x1603d",
        "value": "0x0",
        "input": "0x4000aea00000000000000000000000009ddfaca8183c41ad55329bdeed9f6a8d53168b1b00000000000000000000000000000000000000000000000000b1a2bc2ec5000000000000000000000000000000000000000000000000000000000000000000600000000000000000000000000000000000000000000000000000000000000020095d5354ca8513b092679e1cd7abfcd39dd99248fd82836e94211d738c35e320",
        "nonce": "0xa",
        "chainId": "0xaa36a7"
      },
      "additionalContracts": [],
      "isFixedGasLimit": false
    }
  ],
  "receipts": [
    {
      "status": "0x1",
      "cumulativeGasUsed": "0x1308b6b",
      "logs": [
        {
          "address": "0x779877a7b0d9e8603169ddbd7836e478b4624789",
          "topics": [
            "0xddf252ad1be2c89b69c2b068fc378daa952ba7f163c4a11628f55a4df523b3ef",
            "0x0000000000000000000000005cf9ac9b7b6c42998b887099e4fa68a07e066f44",
            "0x0000000000000000000000009ddfaca8183c41ad55329bdeed9f6a8d53168b1b"
          ],
          "data": "0x00000000000000000000000000000000000000000000000000b1a2bc2ec50000",
          "blockHash": "0xfd01f1ce576b46da371d345f41980ef5d20e7933189a2d5bebf4d8003d4c3994",
          "blockNumber": "0x5d4bdd",
          "transactionHash": "0x2c45c9cc4dc677037322bc1c70f29964ac9bd3749ef7ea8cac0444dfb7779201",
          "transactionIndex": "0x64",
          "logIndex": "0xaf",
          "removed": false
        },
        {
          "address": "0x779877a7b0d9e8603169ddbd7836e478b4624789",
          "topics": [
            "0xe19260aff97b920c7df27010903aeb9c8d2be5d310a2c67824cf3f15396e4c16",
            "0x0000000000000000000000005cf9ac9b7b6c42998b887099e4fa68a07e066f44",
            "0x0000000000000000000000009ddfaca8183c41ad55329bdeed9f6a8d53168b1b"
          ],
          "data": "0x00000000000000000000000000000000000000000000000000b1a2bc2ec5000000000000000000000000000000000000000000000000000000000000000000400000000000000000000000000000000000000000000000000000000000000020095d5354ca8513b092679e1cd7abfcd39dd99248fd82836e94211d738c35e320",
          "blockHash": "0xfd01f1ce576b46da371d345f41980ef5d20e7933189a2d5bebf4d8003d4c3994",
          "blockNumber": "0x5d4bdd",
          "transactionHash": "0x2c45c9cc4dc677037322bc1c70f29964ac9bd3749ef7ea8cac0444dfb7779201",
          "transactionIndex": "0x64",
          "logIndex": "0xb0",
          "removed": false
        },
        {
          "address": "0x9ddfaca8183c41ad55329bdeed9f6a8d53168b1b",
          "topics": [
            "0x1ced9348ff549fceab2ac57cd3a9de38edaaab274b725ee82c23e8fc8c4eec7a",
            "0x095d5354ca8513b092679e1cd7abfcd39dd99248fd82836e94211d738c35e320"
          ],
          "data": "0x000000000000000000000000000000000000000000000000d02ab486cedc0000000000000000000000000000000000000000000000000000d0dc5742fda10000",
          "blockHash": "0xfd01f1ce576b46da371d345f41980ef5d20e7933189a2d5bebf4d8003d4c3994",
          "blockNumber": "0x5d4bdd",
          "transactionHash": "0x2c45c9cc4dc677037322bc1c70f29964ac9bd3749ef7ea8cac0444dfb7779201",
          "transactionIndex": "0x64",
          "logIndex": "0xb1",
          "removed": false
        }
      ],
      "logsBloom": "0x00000004000000000000000000000000000000000020000000000000820020000000000000000000000000000000000000000000000000000000000000000000000000000000000000000008000000000000000000000000000020000020000008000000000000002000000000000000000000000000000400000010000040000000000000000000000000010000800000000020000000000000000000000000000000000000000000000000010000000000000000000000000004000000000000000002000000000000000000000000000000000000000100000000000000000010000000000000800000000000400000000000000000000000000800000000",
      "type": "0x2",
      "transactionHash": "0x2c45c9cc4dc677037322bc1c70f29964ac9bd3749ef7ea8cac0444dfb7779201",
      "transactionIndex": "0x64",
      "blockHash": "0xfd01f1ce576b46da371d345f41980ef5d20e7933189a2d5bebf4d8003d4c3994",
      "blockNumber": "0x5d4bdd",
      "gasUsed": "0xf0d9",
      "effectiveGasPrice": "0x2faf81e",
      "from": "0x5cf9ac9b7b6c42998b887099e4fa68a07e066f44",
      "to": "0x779877a7b0d9e8603169ddbd7836e478b4624789",
      "contractAddress": null
    }
  ],
  "libraries": [],
  "pending": [],
  "returns": {},
  "timestamp": 1718469725,
  "chain": 11155111,
  "commit": "b3991d5"
}